{
  "_format": "hh-sol-artifact-1",
  "contractName": "Exchange01",
  "sourceName": "contracts/Exchange.sol",
  "abi": [
    {
      "inputs": [
        {
          "internalType": "address",
          "name": "_tokenAddress",
          "type": "address"
        },
        {
          "internalType": "bytes32",
          "name": "_root",
          "type": "bytes32"
        },
        {
          "internalType": "address",
          "name": "_executionDelegate",
          "type": "address"
        }
      ],
      "stateMutability": "nonpayable",
      "type": "constructor"
    },
    {
      "anonymous": false,
      "inputs": [
        {
          "indexed": true,
          "internalType": "contract IExecutionDelegate",
          "name": "executionDelegate",
          "type": "address"
        }
      ],
      "name": "NewExecutionDelegate",
      "type": "event"
    },
    {
      "inputs": [
        {
          "internalType": "uint256",
          "name": "_amount",
          "type": "uint256"
        }
      ],
      "name": "deposit",
      "outputs": [],
      "stateMutability": "nonpayable",
      "type": "function"
    },
    {
      "inputs": [
        {
          "internalType": "address",
          "name": "",
          "type": "address"
        }
      ],
      "name": "deposits",
      "outputs": [
        {
          "internalType": "uint256",
          "name": "",
          "type": "uint256"
        }
      ],
      "stateMutability": "view",
      "type": "function"
    },
    {
      "inputs": [
        {
          "components": [
            {
              "internalType": "address",
              "name": "trader",
              "type": "address"
            },
            {
              "internalType": "uint256",
              "name": "tokenId",
              "type": "uint256"
            },
            {
              "internalType": "address",
              "name": "collection",
              "type": "address"
            },
            {
              "internalType": "uint256",
              "name": "listingTime",
              "type": "uint256"
            },
            {
              "internalType": "uint256",
              "name": "price",
              "type": "uint256"
            },
            {
              "internalType": "bytes",
              "name": "signature",
              "type": "bytes"
            }
          ],
          "internalType": "struct Order",
          "name": "order",
          "type": "tuple"
        },
        {
          "internalType": "address",
          "name": "collection",
          "type": "address"
        },
        {
          "internalType": "address",
          "name": "from",
          "type": "address"
        },
        {
          "internalType": "address",
          "name": "to",
          "type": "address"
        },
        {
          "internalType": "uint256",
          "name": "tokenId",
          "type": "uint256"
        },
        {
          "internalType": "uint256",
          "name": "_fees",
          "type": "uint256"
        }
      ],
      "name": "executeOrder",
      "outputs": [
        {
          "internalType": "bool",
          "name": "",
          "type": "bool"
        }
      ],
      "stateMutability": "nonpayable",
      "type": "function"
    },
    {
      "inputs": [],
      "name": "executionDelegate",
      "outputs": [
        {
          "internalType": "contract IExecutionDelegate",
          "name": "",
          "type": "address"
        }
      ],
      "stateMutability": "view",
      "type": "function"
    },
    {
      "inputs": [
        {
          "internalType": "address",
          "name": "",
          "type": "address"
        }
      ],
      "name": "feesPaid",
      "outputs": [
        {
          "internalType": "uint256",
          "name": "",
          "type": "uint256"
        }
      ],
      "stateMutability": "view",
      "type": "function"
    },
    {
      "inputs": [],
      "name": "owner",
      "outputs": [
        {
          "internalType": "address",
          "name": "",
          "type": "address"
        }
      ],
      "stateMutability": "view",
      "type": "function"
    },
    {
      "inputs": [
        {
          "components": [
            {
              "internalType": "address",
              "name": "trader",
              "type": "address"
            },
            {
              "internalType": "uint256",
              "name": "tokenId",
              "type": "uint256"
            },
            {
              "internalType": "address",
              "name": "collection",
              "type": "address"
            },
            {
              "internalType": "uint256",
              "name": "listingTime",
              "type": "uint256"
            },
            {
              "internalType": "uint256",
              "name": "price",
              "type": "uint256"
            },
            {
              "internalType": "bytes",
              "name": "signature",
              "type": "bytes"
            }
          ],
          "internalType": "struct Order",
          "name": "order",
          "type": "tuple"
        }
      ],
      "name": "recover",
      "outputs": [
        {
          "internalType": "address",
          "name": "",
          "type": "address"
        }
      ],
      "stateMutability": "view",
      "type": "function"
    },
    {
      "inputs": [],
      "name": "root",
      "outputs": [
        {
          "internalType": "bytes32",
          "name": "",
          "type": "bytes32"
        }
      ],
      "stateMutability": "view",
      "type": "function"
    },
    {
      "inputs": [
        {
          "internalType": "address",
          "name": "_executionDelegate",
          "type": "address"
        }
      ],
      "name": "setExecution",
      "outputs": [],
      "stateMutability": "nonpayable",
      "type": "function"
    },
    {
      "inputs": [],
      "name": "tokenAddress",
      "outputs": [
        {
          "internalType": "contract IERC20",
          "name": "",
          "type": "address"
        }
      ],
      "stateMutability": "view",
      "type": "function"
    },
    {
      "inputs": [
        {
          "internalType": "bytes32[]",
          "name": "proof",
          "type": "bytes32[]"
        }
      ],
      "name": "whiteListUser",
      "outputs": [
        {
          "internalType": "bool",
          "name": "",
          "type": "bool"
        }
      ],
      "stateMutability": "view",
      "type": "function"
    },
    {
      "inputs": [],
      "name": "withdraw",
      "outputs": [],
      "stateMutability": "nonpayable",
      "type": "function"
    }
  ],
  "bytecode": "0x6101406040523480156200001257600080fd5b50604051620022bd380380620022bd833981810160405281019062000038919062000296565b6040518060400160405280600881526020017f45786368616e67650000000000000000000000000000000000000000000000008152506040518060400160405280600181526020017f310000000000000000000000000000000000000000000000000000000000000081525060008280519060200120905060008280519060200120905060007f8b73c3c69bb8fe3d512ecc4cf759cc79239f7b179b0ffacaa9a75d522b39400f90508260e081815250508161010081815250504660a081815250506200010d8184846200022c60201b60201c565b608081815250503073ffffffffffffffffffffffffffffffffffffffff1660c08173ffffffffffffffffffffffffffffffffffffffff1660601b8152505080610120818152505050505050508160008190555080600360006101000a81548173ffffffffffffffffffffffffffffffffffffffff021916908373ffffffffffffffffffffffffffffffffffffffff16021790555082600260006101000a81548173ffffffffffffffffffffffffffffffffffffffff021916908373ffffffffffffffffffffffffffffffffffffffff16021790555033600160006101000a81548173ffffffffffffffffffffffffffffffffffffffff021916908373ffffffffffffffffffffffffffffffffffffffff16021790555050505062000403565b600083838346306040516020016200024995949392919062000325565b6040516020818303038152906040528051906020012090509392505050565b6000815190506200027981620003cf565b92915050565b6000815190506200029081620003e9565b92915050565b600080600060608486031215620002b257620002b1620003ca565b5b6000620002c28682870162000268565b9350506020620002d5868287016200027f565b9250506040620002e88682870162000268565b9150509250925092565b620002fd8162000382565b82525050565b6200030e8162000396565b82525050565b6200031f81620003c0565b82525050565b600060a0820190506200033c600083018862000303565b6200034b602083018762000303565b6200035a604083018662000303565b62000369606083018562000314565b620003786080830184620002f2565b9695505050505050565b60006200038f82620003a0565b9050919050565b6000819050919050565b600073ffffffffffffffffffffffffffffffffffffffff82169050919050565b6000819050919050565b600080fd5b620003da8162000382565b8114620003e657600080fd5b50565b620003f48162000396565b81146200040057600080fd5b50565b60805160a05160c05160601c60e0516101005161012051611e67620004566000396000610c3201526000610c7401526000610c5301526000610b8801526000610bde01526000610c070152611e676000f3fe608060405234801561001057600080fd5b50600436106100b45760003560e01c8063b6b55f2511610071578063b6b55f251461017d578063c77fc23514610199578063c8098a81146101b5578063e5656dd3146101e5578063ebf0c71714610215578063fc7e286d14610233576100b4565b80633ccfd60b146100b9578063799ecb34146100c35780638da5cb5b146100f357806395b8c88314610111578063986c9b20146101415780639d76ea581461015f575b600080fd5b6100c1610263565b005b6100dd60048036038101906100d89190611157565b6103a4565b6040516100ea91906118a5565b60405180910390f35b6100fb6103bc565b6040516101089190611560565b60405180910390f35b61012b60048036038101906101269190611243565b6103e2565b6040516101389190611620565b60405180910390f35b610149610553565b604051610156919061176a565b60405180910390f35b610167610579565b604051610174919061174f565b60405180910390f35b610197600480360381019061019291906112ec565b61059f565b005b6101b360048036038101906101ae9190611157565b610698565b005b6101cf60048036038101906101ca9190611184565b610841565b6040516101dc9190611620565b60405180910390f35b6101ff60048036038101906101fa91906111fa565b6108bb565b60405161020c9190611560565b60405180910390f35b61021d6109b3565b60405161022a919061163b565b60405180910390f35b61024d60048036038101906102489190611157565b6109b9565b60405161025a91906118a5565b60405180910390f35b6000600460003373ffffffffffffffffffffffffffffffffffffffff1673ffffffffffffffffffffffffffffffffffffffff16815260200190815260200160002054600560003373ffffffffffffffffffffffffffffffffffffffff1673ffffffffffffffffffffffffffffffffffffffff168152602001908152602001600020546102ef9190611990565b9050600260009054906101000a900473ffffffffffffffffffffffffffffffffffffffff1673ffffffffffffffffffffffffffffffffffffffff1663a9059cbb33836040518363ffffffff1660e01b815260040161034e9291906115f7565b602060405180830381600087803b15801561036857600080fd5b505af115801561037c573d6000803e3d6000fd5b505050506040513d601f19601f820116820180604052508101906103a091906111cd565b5050565b60046020528060005260406000206000915090505481565b600160009054906101000a900473ffffffffffffffffffffffffffffffffffffffff1681565b600081600560003373ffffffffffffffffffffffffffffffffffffffff1673ffffffffffffffffffffffffffffffffffffffff1681526020019081526020016000205411610465576040517f08c379a000000000000000000000000000000000000000000000000000000000815260040161045c90611885565b60405180910390fd5b61046e876109d1565b6104ad576040517f08c379a00000000000000000000000000000000000000000000000000000000081526004016104a490611805565b60405180910390fd5b6104b687610a2b565b6104f5576040517f08c379a00000000000000000000000000000000000000000000000000000000081526004016104ec90611825565b60405180910390fd5b61050186868686610a7c565b81600460003373ffffffffffffffffffffffffffffffffffffffff1673ffffffffffffffffffffffffffffffffffffffff16815260200190815260200160002081905550600190509695505050505050565b600360009054906101000a900473ffffffffffffffffffffffffffffffffffffffff1681565b600260009054906101000a900473ffffffffffffffffffffffffffffffffffffffff1681565b600260009054906101000a900473ffffffffffffffffffffffffffffffffffffffff1673ffffffffffffffffffffffffffffffffffffffff166323b872dd3330846040518463ffffffff1660e01b81526004016105fe939291906115c0565b602060405180830381600087803b15801561061857600080fd5b505af115801561062c573d6000803e3d6000fd5b505050506040513d601f19601f8201168201806040525081019061065091906111cd565b5080600560003373ffffffffffffffffffffffffffffffffffffffff1673ffffffffffffffffffffffffffffffffffffffff1681526020019081526020016000208190555050565b600160009054906101000a900473ffffffffffffffffffffffffffffffffffffffff1673ffffffffffffffffffffffffffffffffffffffff163373ffffffffffffffffffffffffffffffffffffffff1614610728576040517f08c379a000000000000000000000000000000000000000000000000000000000815260040161071f90611865565b60405180910390fd5b600073ffffffffffffffffffffffffffffffffffffffff168173ffffffffffffffffffffffffffffffffffffffff161415610798576040517f08c379a000000000000000000000000000000000000000000000000000000000815260040161078f906117e5565b60405180910390fd5b80600360006101000a81548173ffffffffffffffffffffffffffffffffffffffff021916908373ffffffffffffffffffffffffffffffffffffffff160217905550600360009054906101000a900473ffffffffffffffffffffffffffffffffffffffff1673ffffffffffffffffffffffffffffffffffffffff167ff9a0f356a7ef079355de09d32ce45cc3cfabc8f118681c19a17501f005a376ac60405160405180910390a250565b60006108738233604051602001610858919061150e565b60405160208183030381529060405280519060200120610b15565b6108b2576040517f08c379a00000000000000000000000000000000000000000000000000000000081526004016108a990611845565b60405180910390fd5b60019050919050565b6000806109477ffa28478630daf0d7b8419d438ec2ee789da8b8b818849d8f1753473dcf8ddcdc8460000160208101906108f59190611157565b856020013586604001602081019061090d9190611157565b8760600135886080013560405160200161092c96959493929190611656565b60405160208183030381529060405280519060200120610b2c565b905060006109a782858060a0019061095f91906118c0565b8080601f016020809104026020016040519081016040528093929190818152602001838380828437600081840152601f19601f82011690508083019250505050505050610b46565b90508092505050919050565b60005481565b60056020528060005260406000206000915090505481565b60008073ffffffffffffffffffffffffffffffffffffffff168260000160208101906109fd9190611157565b73ffffffffffffffffffffffffffffffffffffffff1614158015610a245750428260600135105b9050919050565b6000610a36826108bb565b73ffffffffffffffffffffffffffffffffffffffff163373ffffffffffffffffffffffffffffffffffffffff161415610a725760019050610a77565b600090505b919050565b600360009054906101000a900473ffffffffffffffffffffffffffffffffffffffff1673ffffffffffffffffffffffffffffffffffffffff1663789f93f6858585856040518563ffffffff1660e01b8152600401610add949392919061157b565b600060405180830381600087803b158015610af757600080fd5b505af1158015610b0b573d6000803e3d6000fd5b5050505050505050565b6000610b248360005484610b6d565b905092915050565b6000610b3f610b39610b84565b83610c9e565b9050919050565b6000806000610b558585610cd1565b91509150610b6281610d23565b819250505092915050565b600082610b7a8584610e91565b1490509392505050565b60007f000000000000000000000000000000000000000000000000000000000000000073ffffffffffffffffffffffffffffffffffffffff163073ffffffffffffffffffffffffffffffffffffffff16148015610c0057507f000000000000000000000000000000000000000000000000000000000000000046145b15610c2d577f00000000000000000000000000000000000000000000000000000000000000009050610c9b565b610c987f00000000000000000000000000000000000000000000000000000000000000007f00000000000000000000000000000000000000000000000000000000000000007f0000000000000000000000000000000000000000000000000000000000000000610ee7565b90505b90565b60008282604051602001610cb3929190611529565b60405160208183030381529060405280519060200120905092915050565b600080604183511415610d135760008060006020860151925060408601519150606086015160001a9050610d0787828585610f21565b94509450505050610d1c565b60006002915091505b9250929050565b60006004811115610d3757610d36611b42565b5b816004811115610d4a57610d49611b42565b5b1415610d5557610e8e565b60016004811115610d6957610d68611b42565b5b816004811115610d7c57610d7b611b42565b5b1415610dbd576040517f08c379a0000000000000000000000000000000000000000000000000000000008152600401610db490611785565b60405180910390fd5b60026004811115610dd157610dd0611b42565b5b816004811115610de457610de3611b42565b5b1415610e25576040517f08c379a0000000000000000000000000000000000000000000000000000000008152600401610e1c906117a5565b60405180910390fd5b60036004811115610e3957610e38611b42565b5b816004811115610e4c57610e4b611b42565b5b1415610e8d576040517f08c379a0000000000000000000000000000000000000000000000000000000008152600401610e84906117c5565b60405180910390fd5b5b50565b60008082905060005b8451811015610edc57610ec782868381518110610eba57610eb9611b71565b5b6020026020010151611004565b91508080610ed490611a9c565b915050610e9a565b508091505092915050565b60008383834630604051602001610f029594939291906116b7565b6040516020818303038152906040528051906020012090509392505050565b6000807f7fffffffffffffffffffffffffffffff5d576e7357a4501ddfe92f46681b20a08360001c1115610f5c576000600391509150610ffb565b600060018787878760405160008152602001604052604051610f81949392919061170a565b6020604051602081039080840390855afa158015610fa3573d6000803e3d6000fd5b505050602060405103519050600073ffffffffffffffffffffffffffffffffffffffff168173ffffffffffffffffffffffffffffffffffffffff161415610ff257600060019250925050610ffb565b80600092509250505b94509492505050565b600081831061101c57611017828461102f565b611027565b611026838361102f565b5b905092915050565b600082600052816020526040600020905092915050565b600061105961105484611948565b611923565b9050808382526020820190508285602086028201111561107c5761107b611be3565b5b60005b858110156110ac5781611092888261110e565b84526020840193506020830192505060018101905061107f565b5050509392505050565b6000813590506110c581611dd5565b92915050565b600082601f8301126110e0576110df611bcf565b5b81356110f0848260208601611046565b91505092915050565b60008151905061110881611dec565b92915050565b60008135905061111d81611e03565b92915050565b600060c0828403121561113957611138611bd9565b5b81905092915050565b60008135905061115181611e1a565b92915050565b60006020828403121561116d5761116c611bf2565b5b600061117b848285016110b6565b91505092915050565b60006020828403121561119a57611199611bf2565b5b600082013567ffffffffffffffff8111156111b8576111b7611bed565b5b6111c4848285016110cb565b91505092915050565b6000602082840312156111e3576111e2611bf2565b5b60006111f1848285016110f9565b91505092915050565b6000602082840312156112105761120f611bf2565b5b600082013567ffffffffffffffff81111561122e5761122d611bed565b5b61123a84828501611123565b91505092915050565b60008060008060008060c087890312156112605761125f611bf2565b5b600087013567ffffffffffffffff81111561127e5761127d611bed565b5b61128a89828a01611123565b965050602061129b89828a016110b6565b95505060406112ac89828a016110b6565b94505060606112bd89828a016110b6565b93505060806112ce89828a01611142565b92505060a06112df89828a01611142565b9150509295509295509295565b60006020828403121561130257611301611bf2565b5b600061131084828501611142565b91505092915050565b611322816119c4565b82525050565b611339611334826119c4565b611ae5565b82525050565b611348816119d6565b82525050565b611357816119e2565b82525050565b61136e611369826119e2565b611af7565b82525050565b61137d81611a23565b82525050565b61138c81611a35565b82525050565b600061139f601883611974565b91506113aa82611c15565b602082019050919050565b60006113c2601f83611974565b91506113cd82611c3e565b602082019050919050565b60006113e5600283611985565b91506113f082611c67565b600282019050919050565b6000611408602283611974565b915061141382611c90565b604082019050919050565b600061142b601683611974565b915061143682611cdf565b602082019050919050565b600061144e600f83611974565b915061145982611d08565b602082019050919050565b6000611471601483611974565b915061147c82611d31565b602082019050919050565b6000611494600983611974565b915061149f82611d5a565b602082019050919050565b60006114b7600983611974565b91506114c282611d83565b602082019050919050565b60006114da601583611974565b91506114e582611dac565b602082019050919050565b6114f981611a0c565b82525050565b61150881611a16565b82525050565b600061151a8284611328565b60148201915081905092915050565b6000611534826113d8565b9150611540828561135d565b602082019150611550828461135d565b6020820191508190509392505050565b60006020820190506115756000830184611319565b92915050565b60006080820190506115906000830187611319565b61159d6020830186611319565b6115aa6040830185611319565b6115b760608301846114f0565b95945050505050565b60006060820190506115d56000830186611319565b6115e26020830185611319565b6115ef60408301846114f0565b949350505050565b600060408201905061160c6000830185611319565b61161960208301846114f0565b9392505050565b6000602082019050611635600083018461133f565b92915050565b6000602082019050611650600083018461134e565b92915050565b600060c08201905061166b600083018961134e565b6116786020830188611319565b61168560408301876114f0565b6116926060830186611319565b61169f60808301856114f0565b6116ac60a08301846114f0565b979650505050505050565b600060a0820190506116cc600083018861134e565b6116d9602083018761134e565b6116e6604083018661134e565b6116f360608301856114f0565b6117006080830184611319565b9695505050505050565b600060808201905061171f600083018761134e565b61172c60208301866114ff565b611739604083018561134e565b611746606083018461134e565b95945050505050565b60006020820190506117646000830184611374565b92915050565b600060208201905061177f6000830184611383565b92915050565b6000602082019050818103600083015261179e81611392565b9050919050565b600060208201905081810360008301526117be816113b5565b9050919050565b600060208201905081810360008301526117de816113fb565b9050919050565b600060208201905081810360008301526117fe8161141e565b9050919050565b6000602082019050818103600083015261181e81611441565b9050919050565b6000602082019050818103600083015261183e81611464565b9050919050565b6000602082019050818103600083015261185e81611487565b9050919050565b6000602082019050818103600083015261187e816114aa565b9050919050565b6000602082019050818103600083015261189e816114cd565b9050919050565b60006020820190506118ba60008301846114f0565b92915050565b600080833560016020038436030381126118dd576118dc611bde565b5b80840192508235915067ffffffffffffffff8211156118ff576118fe611bd4565b5b60208301925060018202360383131561191b5761191a611be8565b5b509250929050565b600061192d61193e565b90506119398282611a6b565b919050565b6000604051905090565b600067ffffffffffffffff82111561196357611962611ba0565b5b602082029050602081019050919050565b600082825260208201905092915050565b600081905092915050565b600061199b82611a0c565b91506119a683611a0c565b9250828210156119b9576119b8611b13565b5b828203905092915050565b60006119cf826119ec565b9050919050565b60008115159050919050565b6000819050919050565b600073ffffffffffffffffffffffffffffffffffffffff82169050919050565b6000819050919050565b600060ff82169050919050565b6000611a2e82611a47565b9050919050565b6000611a4082611a47565b9050919050565b6000611a5282611a59565b9050919050565b6000611a64826119ec565b9050919050565b611a7482611bf7565b810181811067ffffffffffffffff82111715611a9357611a92611ba0565b5b80604052505050565b6000611aa782611a0c565b91507fffffffffffffffffffffffffffffffffffffffffffffffffffffffffffffffff821415611ada57611ad9611b13565b5b600182019050919050565b6000611af082611b01565b9050919050565b6000819050919050565b6000611b0c82611c08565b9050919050565b7f4e487b7100000000000000000000000000000000000000000000000000000000600052601160045260246000fd5b7f4e487b7100000000000000000000000000000000000000000000000000000000600052602160045260246000fd5b7f4e487b7100000000000000000000000000000000000000000000000000000000600052603260045260246000fd5b7f4e487b7100000000000000000000000000000000000000000000000000000000600052604160045260246000fd5b600080fd5b600080fd5b600080fd5b600080fd5b600080fd5b600080fd5b600080fd5b600080fd5b6000601f19601f8301169050919050565b60008160601b9050919050565b7f45434453413a20696e76616c6964207369676e61747572650000000000000000600082015250565b7f45434453413a20696e76616c6964207369676e6174757265206c656e67746800600082015250565b7f1901000000000000000000000000000000000000000000000000000000000000600082015250565b7f45434453413a20696e76616c6964207369676e6174757265202773272076616c60008201527f7565000000000000000000000000000000000000000000000000000000000000602082015250565b7f416464726573732063616e6e6f74206265207a65726f00000000000000000000600082015250565b7f6f72646572206e6f742076616c69640000000000000000000000000000000000600082015250565b7f77726f6e672075736572207369676e6174757265000000000000000000000000600082015250565b7f4e6f742076616c69640000000000000000000000000000000000000000000000600082015250565b7f4e6f74206f776e65720000000000000000000000000000000000000000000000600082015250565b7f4e6f742070617274206f6620616c6c6f776c6973740000000000000000000000600082015250565b611dde816119c4565b8114611de957600080fd5b50565b611df5816119d6565b8114611e0057600080fd5b50565b611e0c816119e2565b8114611e1757600080fd5b50565b611e2381611a0c565b8114611e2e57600080fd5b5056fea2646970667358221220340c3ea0b87aee6af7e7b04726d92ce19f03401ee3122cda437483b0d47e4c2a64736f6c63430008070033",
  "linkReferences": {},
  "deployedLinkReferences": {}
}