{
  "_format": "hh-sol-artifact-1",
  "contractName": "ExecutionDelegate",
  "sourceName": "contracts/ExecutionDelegate.sol",
  "abi": [
    {
      "inputs": [
        {
          "internalType": "address",
          "name": "_contract",
          "type": "address"
        }
      ],
      "name": "approveContract",
      "outputs": [],
      "stateMutability": "nonpayable",
      "type": "function"
    },
    {
      "inputs": [
        {
          "internalType": "address",
          "name": "",
          "type": "address"
        }
      ],
      "name": "contracts",
      "outputs": [
        {
          "internalType": "bool",
          "name": "",
          "type": "bool"
        }
      ],
      "stateMutability": "view",
      "type": "function"
    },
    {
      "inputs": [],
      "name": "revokeApproval",
      "outputs": [],
      "stateMutability": "nonpayable",
      "type": "function"
    },
    {
      "inputs": [
        {
          "internalType": "address",
          "name": "",
          "type": "address"
        }
      ],
      "name": "revokedApproval",
      "outputs": [
        {
          "internalType": "bool",
          "name": "",
          "type": "bool"
        }
      ],
      "stateMutability": "view",
      "type": "function"
    },
    {
      "inputs": [
        {
          "internalType": "address",
          "name": "collection",
          "type": "address"
        },
        {
          "internalType": "address",
          "name": "from",
          "type": "address"
        },
        {
          "internalType": "address",
          "name": "to",
          "type": "address"
        },
        {
          "internalType": "uint256",
          "name": "tokenId",
          "type": "uint256"
        }
      ],
      "name": "transferERC721",
      "outputs": [],
      "stateMutability": "nonpayable",
      "type": "function"
    }
  ],
  "bytecode": "0x608060405234801561001057600080fd5b50610681806100206000396000f3fe608060405234801561001057600080fd5b50600436106100575760003560e01c806307f7aafb1461005c5780634a3e3a1f1461007857806369dc9ff3146100a8578063789f93f6146100d857806390d02b3c146100f4575b600080fd5b610076600480360381019061007191906103ae565b6100fe565b005b610092600480360381019061008d91906103ae565b610158565b60405161009f91906104ec565b60405180910390f35b6100c260048036038101906100bd91906103ae565b610178565b6040516100cf91906104ec565b60405180910390f35b6100f260048036038101906100ed91906103db565b610198565b005b6100fc61032b565b005b60016000808373ffffffffffffffffffffffffffffffffffffffff1673ffffffffffffffffffffffffffffffffffffffff16815260200190815260200160002060006101000a81548160ff02191690831515021790555050565b60016020528060005260406000206000915054906101000a900460ff1681565b60006020528060005260406000206000915054906101000a900460ff1681565b6000803373ffffffffffffffffffffffffffffffffffffffff1673ffffffffffffffffffffffffffffffffffffffff16815260200190815260200160002060009054906101000a900460ff16610223576040517f08c379a000000000000000000000000000000000000000000000000000000000815260040161021a90610527565b60405180910390fd5b60001515600160008573ffffffffffffffffffffffffffffffffffffffff1673ffffffffffffffffffffffffffffffffffffffff16815260200190815260200160002060009054906101000a900460ff161515146102b6576040517f08c379a00000000000000000000000000000000000000000000000000000000081526004016102ad90610507565b60405180910390fd5b8373ffffffffffffffffffffffffffffffffffffffff166342842e0e8484846040518463ffffffff1660e01b81526004016102f3939291906104b5565b600060405180830381600087803b15801561030d57600080fd5b505af1158015610321573d6000803e3d6000fd5b5050505050505050565b60018060003373ffffffffffffffffffffffffffffffffffffffff1673ffffffffffffffffffffffffffffffffffffffff16815260200190815260200160002060006101000a81548160ff021916908315150217905550565b6000813590506103938161061d565b92915050565b6000813590506103a881610634565b92915050565b6000602082840312156103c4576103c36105a0565b5b60006103d284828501610384565b91505092915050565b600080600080608085870312156103f5576103f46105a0565b5b600061040387828801610384565b945050602061041487828801610384565b935050604061042587828801610384565b925050606061043687828801610399565b91505092959194509250565b61044b81610558565b82525050565b61045a8161056a565b82525050565b600061046d601983610547565b9150610478826105a5565b602082019050919050565b6000610490602a83610547565b915061049b826105ce565b604082019050919050565b6104af81610596565b82525050565b60006060820190506104ca6000830186610442565b6104d76020830185610442565b6104e460408301846104a6565b949350505050565b60006020820190506105016000830184610451565b92915050565b6000602082019050818103600083015261052081610460565b9050919050565b6000602082019050818103600083015261054081610483565b9050919050565b600082825260208201905092915050565b600061056382610576565b9050919050565b60008115159050919050565b600073ffffffffffffffffffffffffffffffffffffffff82169050919050565b6000819050919050565b600080fd5b7f5573657220686173207265766f6b656420617070726f76616c00000000000000600082015250565b7f636f6e7472616374206973206e6f7420617070726f76656420746f206d616b6560008201527f207472616e736665727300000000000000000000000000000000000000000000602082015250565b61062681610558565b811461063157600080fd5b50565b61063d81610596565b811461064857600080fd5b5056fea2646970667358221220710755f5ed59f2afe0f9d7dd6c068726eca3f11d1a1fa325573ee98ac610995664736f6c63430008070033",
  "linkReferences": {},
  "deployedLinkReferences": {}
}