{
  "_format": "hh-sol-artifact-1",
  "contractName": "MyToken",
  "sourceName": "contracts/ERC721NFT.sol",
  "abi": [
    {
      "inputs": [],
      "stateMutability": "nonpayable",
      "type": "constructor"
    },
    {
      "anonymous": false,
      "inputs": [
        {
          "indexed": true,
          "internalType": "address",
          "name": "owner",
          "type": "address"
        },
        {
          "indexed": true,
          "internalType": "address",
          "name": "approved",
          "type": "address"
        },
        {
          "indexed": true,
          "internalType": "uint256",
          "name": "tokenId",
          "type": "uint256"
        }
      ],
      "name": "Approval",
      "type": "event"
    },
    {
      "anonymous": false,
      "inputs": [
        {
          "indexed": true,
          "internalType": "address",
          "name": "owner",
          "type": "address"
        },
        {
          "indexed": true,
          "internalType": "address",
          "name": "operator",
          "type": "address"
        },
        {
          "indexed": false,
          "internalType": "bool",
          "name": "approved",
          "type": "bool"
        }
      ],
      "name": "ApprovalForAll",
      "type": "event"
    },
    {
      "anonymous": false,
      "inputs": [
        {
          "indexed": true,
          "internalType": "address",
          "name": "from",
          "type": "address"
        },
        {
          "indexed": true,
          "internalType": "address",
          "name": "to",
          "type": "address"
        },
        {
          "indexed": true,
          "internalType": "uint256",
          "name": "tokenId",
          "type": "uint256"
        }
      ],
      "name": "Transfer",
      "type": "event"
    },
    {
      "inputs": [
        {
          "internalType": "address",
          "name": "to",
          "type": "address"
        },
        {
          "internalType": "uint256",
          "name": "tokenId",
          "type": "uint256"
        }
      ],
      "name": "approve",
      "outputs": [],
      "stateMutability": "nonpayable",
      "type": "function"
    },
    {
      "inputs": [
        {
          "internalType": "address",
          "name": "owner",
          "type": "address"
        }
      ],
      "name": "balanceOf",
      "outputs": [
        {
          "internalType": "uint256",
          "name": "",
          "type": "uint256"
        }
      ],
      "stateMutability": "view",
      "type": "function"
    },
    {
      "inputs": [
        {
          "internalType": "uint256",
          "name": "tokenId",
          "type": "uint256"
        }
      ],
      "name": "getApproved",
      "outputs": [
        {
          "internalType": "address",
          "name": "",
          "type": "address"
        }
      ],
      "stateMutability": "view",
      "type": "function"
    },
    {
      "inputs": [
        {
          "internalType": "address",
          "name": "owner",
          "type": "address"
        },
        {
          "internalType": "address",
          "name": "operator",
          "type": "address"
        }
      ],
      "name": "isApprovedForAll",
      "outputs": [
        {
          "internalType": "bool",
          "name": "",
          "type": "bool"
        }
      ],
      "stateMutability": "view",
      "type": "function"
    },
    {
      "inputs": [],
      "name": "name",
      "outputs": [
        {
          "internalType": "string",
          "name": "",
          "type": "string"
        }
      ],
      "stateMutability": "view",
      "type": "function"
    },
    {
      "inputs": [
        {
          "internalType": "uint256",
          "name": "tokenId",
          "type": "uint256"
        }
      ],
      "name": "ownerOf",
      "outputs": [
        {
          "internalType": "address",
          "name": "",
          "type": "address"
        }
      ],
      "stateMutability": "view",
      "type": "function"
    },
    {
      "inputs": [
        {
          "internalType": "address",
          "name": "to",
          "type": "address"
        },
        {
          "internalType": "uint256",
          "name": "tokenId",
          "type": "uint256"
        }
      ],
      "name": "safeMint",
      "outputs": [],
      "stateMutability": "nonpayable",
      "type": "function"
    },
    {
      "inputs": [
        {
          "internalType": "address",
          "name": "from",
          "type": "address"
        },
        {
          "internalType": "address",
          "name": "to",
          "type": "address"
        },
        {
          "internalType": "uint256",
          "name": "tokenId",
          "type": "uint256"
        }
      ],
      "name": "safeTransferFrom",
      "outputs": [],
      "stateMutability": "nonpayable",
      "type": "function"
    },
    {
      "inputs": [
        {
          "internalType": "address",
          "name": "from",
          "type": "address"
        },
        {
          "internalType": "address",
          "name": "to",
          "type": "address"
        },
        {
          "internalType": "uint256",
          "name": "tokenId",
          "type": "uint256"
        },
        {
          "internalType": "bytes",
          "name": "data",
          "type": "bytes"
        }
      ],
      "name": "safeTransferFrom",
      "outputs": [],
      "stateMutability": "nonpayable",
      "type": "function"
    },
    {
      "inputs": [
        {
          "internalType": "address",
          "name": "operator",
          "type": "address"
        },
        {
          "internalType": "bool",
          "name": "approved",
          "type": "bool"
        }
      ],
      "name": "setApprovalForAll",
      "outputs": [],
      "stateMutability": "nonpayable",
      "type": "function"
    },
    {
      "inputs": [
        {
          "internalType": "bytes4",
          "name": "interfaceId",
          "type": "bytes4"
        }
      ],
      "name": "supportsInterface",
      "outputs": [
        {
          "internalType": "bool",
          "name": "",
          "type": "bool"
        }
      ],
      "stateMutability": "view",
      "type": "function"
    },
    {
      "inputs": [],
      "name": "symbol",
      "outputs": [
        {
          "internalType": "string",
          "name": "",
          "type": "string"
        }
      ],
      "stateMutability": "view",
      "type": "function"
    },
    {
      "inputs": [
        {
          "internalType": "uint256",
          "name": "tokenId",
          "type": "uint256"
        }
      ],
      "name": "tokenURI",
      "outputs": [
        {
          "internalType": "string",
          "name": "",
          "type": "string"
        }
      ],
      "stateMutability": "view",
      "type": "function"
    },
    {
      "inputs": [
        {
          "internalType": "address",
          "name": "from",
          "type": "address"
        },
        {
          "internalType": "address",
          "name": "to",
          "type": "address"
        },
        {
          "internalType": "uint256",
          "name": "tokenId",
          "type": "uint256"
        }
      ],
      "name": "transferFrom",
      "outputs": [],
      "stateMutability": "nonpayable",
      "type": "function"
    }
  ],
  "bytecode": "0x60806040523480156200001157600080fd5b506040518060400160405280600781526020017f4d79546f6b656e000000000000000000000000000000000000000000000000008152506040518060400160405280600381526020017f4d544b0000000000000000000000000000000000000000000000000000000000815250816000908051906020019062000096929190620000b8565b508060019080519060200190620000af929190620000b8565b505050620001cd565b828054620000c69062000168565b90600052602060002090601f016020900481019282620000ea576000855562000136565b82601f106200010557805160ff191683800117855562000136565b8280016001018555821562000136579182015b828111156200013557825182559160200191906001019062000118565b5b50905062000145919062000149565b5090565b5b80821115620001645760008160009055506001016200014a565b5090565b600060028204905060018216806200018157607f821691505b602082108114156200019857620001976200019e565b5b50919050565b7f4e487b7100000000000000000000000000000000000000000000000000000000600052602260045260246000fd5b6126d680620001dd6000396000f3fe608060405234801561001057600080fd5b50600436106100ea5760003560e01c806370a082311161008c578063a22cb46511610066578063a22cb4651461025b578063b88d4fde14610277578063c87b56dd14610293578063e985e9c5146102c3576100ea565b806370a08231146101f157806395d89b4114610221578063a14481941461023f576100ea565b8063095ea7b3116100c8578063095ea7b31461016d57806323b872dd1461018957806342842e0e146101a55780636352211e146101c1576100ea565b806301ffc9a7146100ef57806306fdde031461011f578063081812fc1461013d575b600080fd5b61010960048036038101906101049190611b3f565b6102f3565b6040516101169190611ea2565b60405180910390f35b6101276103d5565b6040516101349190611ebd565b60405180910390f35b61015760048036038101906101529190611b99565b610467565b6040516101649190611e3b565b60405180910390f35b61018760048036038101906101829190611aff565b6104ad565b005b6101a3600480360381019061019e91906119e9565b6105c5565b005b6101bf60048036038101906101ba91906119e9565b610625565b005b6101db60048036038101906101d69190611b99565b610645565b6040516101e89190611e3b565b60405180910390f35b61020b6004803603810190610206919061197c565b6106cc565b604051610218919061203f565b60405180910390f35b610229610784565b6040516102369190611ebd565b60405180910390f35b61025960048036038101906102549190611aff565b610816565b005b61027560048036038101906102709190611abf565b610824565b005b610291600480360381019061028c9190611a3c565b61083a565b005b6102ad60048036038101906102a89190611b99565b61089c565b6040516102ba9190611ebd565b60405180910390f35b6102dd60048036038101906102d891906119a9565b610904565b6040516102ea9190611ea2565b60405180910390f35b60007f80ac58cd000000000000000000000000000000000000000000000000000000007bffffffffffffffffffffffffffffffffffffffffffffffffffffffff1916827bffffffffffffffffffffffffffffffffffffffffffffffffffffffff191614806103be57507f5b5e139f000000000000000000000000000000000000000000000000000000007bffffffffffffffffffffffffffffffffffffffffffffffffffffffff1916827bffffffffffffffffffffffffffffffffffffffffffffffffffffffff1916145b806103ce57506103cd82610998565b5b9050919050565b6060600080546103e490612233565b80601f016020809104026020016040519081016040528092919081815260200182805461041090612233565b801561045d5780601f106104325761010080835404028352916020019161045d565b820191906000526020600020905b81548152906001019060200180831161044057829003601f168201915b5050505050905090565b600061047282610a02565b6004600083815260200190815260200160002060009054906101000a900473ffffffffffffffffffffffffffffffffffffffff169050919050565b60006104b882610645565b90508073ffffffffffffffffffffffffffffffffffffffff168373ffffffffffffffffffffffffffffffffffffffff161415610529576040517f08c379a000000000000000000000000000000000000000000000000000000000815260040161052090611fff565b60405180910390fd5b8073ffffffffffffffffffffffffffffffffffffffff16610548610a4d565b73ffffffffffffffffffffffffffffffffffffffff161480610577575061057681610571610a4d565b610904565b5b6105b6576040517f08c379a00000000000000000000000000000000000000000000000000000000081526004016105ad9061201f565b60405180910390fd5b6105c08383610a55565b505050565b6105d66105d0610a4d565b82610b0e565b610615576040517f08c379a000000000000000000000000000000000000000000000000000000000815260040161060c90611edf565b60405180910390fd5b610620838383610ba3565b505050565b6106408383836040518060200160405280600081525061083a565b505050565b60008061065183610e9d565b9050600073ffffffffffffffffffffffffffffffffffffffff168173ffffffffffffffffffffffffffffffffffffffff1614156106c3576040517f08c379a00000000000000000000000000000000000000000000000000000000081526004016106ba90611fdf565b60405180910390fd5b80915050919050565b60008073ffffffffffffffffffffffffffffffffffffffff168273ffffffffffffffffffffffffffffffffffffffff16141561073d576040517f08c379a000000000000000000000000000000000000000000000000000000000815260040161073490611f9f565b60405180910390fd5b600360008373ffffffffffffffffffffffffffffffffffffffff1673ffffffffffffffffffffffffffffffffffffffff168152602001908152602001600020549050919050565b60606001805461079390612233565b80601f01602080910402602001604051908101604052809291908181526020018280546107bf90612233565b801561080c5780601f106107e15761010080835404028352916020019161080c565b820191906000526020600020905b8154815290600101906020018083116107ef57829003601f168201915b5050505050905090565b6108208282610eda565b5050565b61083661082f610a4d565b8383610ef8565b5050565b61084b610845610a4d565b83610b0e565b61088a576040517f08c379a000000000000000000000000000000000000000000000000000000000815260040161088190611edf565b60405180910390fd5b61089684848484611065565b50505050565b60606108a782610a02565b60006108b16110c1565b905060008151116108d157604051806020016040528060008152506108fc565b806108db846110d8565b6040516020016108ec929190611e17565b6040516020818303038152906040525b915050919050565b6000600560008473ffffffffffffffffffffffffffffffffffffffff1673ffffffffffffffffffffffffffffffffffffffff16815260200190815260200160002060008373ffffffffffffffffffffffffffffffffffffffff1673ffffffffffffffffffffffffffffffffffffffff16815260200190815260200160002060009054906101000a900460ff16905092915050565b60007f01ffc9a7000000000000000000000000000000000000000000000000000000007bffffffffffffffffffffffffffffffffffffffffffffffffffffffff1916827bffffffffffffffffffffffffffffffffffffffffffffffffffffffff1916149050919050565b610a0b816111b0565b610a4a576040517f08c379a0000000000000000000000000000000000000000000000000000000008152600401610a4190611fdf565b60405180910390fd5b50565b600033905090565b816004600083815260200190815260200160002060006101000a81548173ffffffffffffffffffffffffffffffffffffffff021916908373ffffffffffffffffffffffffffffffffffffffff160217905550808273ffffffffffffffffffffffffffffffffffffffff16610ac883610645565b73ffffffffffffffffffffffffffffffffffffffff167f8c5be1e5ebec7d5bd14f71427d1e84f3dd0314c0f7b2291e5b200ac8c7c3b92560405160405180910390a45050565b600080610b1a83610645565b90508073ffffffffffffffffffffffffffffffffffffffff168473ffffffffffffffffffffffffffffffffffffffff161480610b5c5750610b5b8185610904565b5b80610b9a57508373ffffffffffffffffffffffffffffffffffffffff16610b8284610467565b73ffffffffffffffffffffffffffffffffffffffff16145b91505092915050565b8273ffffffffffffffffffffffffffffffffffffffff16610bc382610645565b73ffffffffffffffffffffffffffffffffffffffff1614610c19576040517f08c379a0000000000000000000000000000000000000000000000000000000008152600401610c1090611f1f565b60405180910390fd5b600073ffffffffffffffffffffffffffffffffffffffff168273ffffffffffffffffffffffffffffffffffffffff161415610c89576040517f08c379a0000000000000000000000000000000000000000000000000000000008152600401610c8090611f5f565b60405180910390fd5b610c9683838360016111f1565b8273ffffffffffffffffffffffffffffffffffffffff16610cb682610645565b73ffffffffffffffffffffffffffffffffffffffff1614610d0c576040517f08c379a0000000000000000000000000000000000000000000000000000000008152600401610d0390611f1f565b60405180910390fd5b6004600082815260200190815260200160002060006101000a81549073ffffffffffffffffffffffffffffffffffffffff02191690556001600360008573ffffffffffffffffffffffffffffffffffffffff1673ffffffffffffffffffffffffffffffffffffffff168152602001908152602001600020600082825403925050819055506001600360008473ffffffffffffffffffffffffffffffffffffffff1673ffffffffffffffffffffffffffffffffffffffff16815260200190815260200160002060008282540192505081905550816002600083815260200190815260200160002060006101000a81548173ffffffffffffffffffffffffffffffffffffffff021916908373ffffffffffffffffffffffffffffffffffffffff160217905550808273ffffffffffffffffffffffffffffffffffffffff168473ffffffffffffffffffffffffffffffffffffffff167fddf252ad1be2c89b69c2b068fc378daa952ba7f163c4a11628f55a4df523b3ef60405160405180910390a4610e988383836001611317565b505050565b60006002600083815260200190815260200160002060009054906101000a900473ffffffffffffffffffffffffffffffffffffffff169050919050565b610ef482826040518060200160405280600081525061131d565b5050565b8173ffffffffffffffffffffffffffffffffffffffff168373ffffffffffffffffffffffffffffffffffffffff161415610f67576040517f08c379a0000000000000000000000000000000000000000000000000000000008152600401610f5e90611f7f565b60405180910390fd5b80600560008573ffffffffffffffffffffffffffffffffffffffff1673ffffffffffffffffffffffffffffffffffffffff16815260200190815260200160002060008473ffffffffffffffffffffffffffffffffffffffff1673ffffffffffffffffffffffffffffffffffffffff16815260200190815260200160002060006101000a81548160ff0219169083151502179055508173ffffffffffffffffffffffffffffffffffffffff168373ffffffffffffffffffffffffffffffffffffffff167f17307eab39ab6107e8899845ad3d59bd9653f200f220920489ca2b5937696c31836040516110589190611ea2565b60405180910390a3505050565b611070848484610ba3565b61107c84848484611378565b6110bb576040517f08c379a00000000000000000000000000000000000000000000000000000000081526004016110b290611eff565b60405180910390fd5b50505050565b606060405180602001604052806000815250905090565b6060600060016110e78461150f565b01905060008167ffffffffffffffff81111561110657611105612323565b5b6040519080825280601f01601f1916602001820160405280156111385781602001600182028036833780820191505090505b509050600082602001820190505b6001156111a5578080600190039150507f3031323334353637383961626364656600000000000000000000000000000000600a86061a8153600a858161118f5761118e6122c5565b5b04945060008514156111a0576111a5565b611146565b819350505050919050565b60008073ffffffffffffffffffffffffffffffffffffffff166111d283610e9d565b73ffffffffffffffffffffffffffffffffffffffff1614159050919050565b600181111561131157600073ffffffffffffffffffffffffffffffffffffffff168473ffffffffffffffffffffffffffffffffffffffff16146112855780600360008673ffffffffffffffffffffffffffffffffffffffff1673ffffffffffffffffffffffffffffffffffffffff168152602001908152602001600020600082825461127d9190612149565b925050819055505b600073ffffffffffffffffffffffffffffffffffffffff168373ffffffffffffffffffffffffffffffffffffffff16146113105780600360008573ffffffffffffffffffffffffffffffffffffffff1673ffffffffffffffffffffffffffffffffffffffff168152602001908152602001600020600082825461130891906120f3565b925050819055505b5b50505050565b50505050565b6113278383611662565b6113346000848484611378565b611373576040517f08c379a000000000000000000000000000000000000000000000000000000000815260040161136a90611eff565b60405180910390fd5b505050565b60006113998473ffffffffffffffffffffffffffffffffffffffff16611880565b15611502578373ffffffffffffffffffffffffffffffffffffffff1663150b7a026113c2610a4d565b8786866040518563ffffffff1660e01b81526004016113e49493929190611e56565b602060405180830381600087803b1580156113fe57600080fd5b505af192505050801561142f57506040513d601f19601f8201168201806040525081019061142c9190611b6c565b60015b6114b2573d806000811461145f576040519150601f19603f3d011682016040523d82523d6000602084013e611464565b606091505b506000815114156114aa576040517f08c379a00000000000000000000000000000000000000000000000000000000081526004016114a190611eff565b60405180910390fd5b805181602001fd5b63150b7a0260e01b7bffffffffffffffffffffffffffffffffffffffffffffffffffffffff1916817bffffffffffffffffffffffffffffffffffffffffffffffffffffffff191614915050611507565b600190505b949350505050565b600080600090507a184f03e93ff9f4daa797ed6e38ed64bf6a1f010000000000000000831061156d577a184f03e93ff9f4daa797ed6e38ed64bf6a1f0100000000000000008381611563576115626122c5565b5b0492506040810190505b6d04ee2d6d415b85acef810000000083106115aa576d04ee2d6d415b85acef810000000083816115a05761159f6122c5565b5b0492506020810190505b662386f26fc1000083106115d957662386f26fc1000083816115cf576115ce6122c5565b5b0492506010810190505b6305f5e1008310611602576305f5e10083816115f8576115f76122c5565b5b0492506008810190505b612710831061162757612710838161161d5761161c6122c5565b5b0492506004810190505b6064831061164a57606483816116405761163f6122c5565b5b0492506002810190505b600a8310611659576001810190505b80915050919050565b600073ffffffffffffffffffffffffffffffffffffffff168273ffffffffffffffffffffffffffffffffffffffff1614156116d2576040517f08c379a00000000000000000000000000000000000000000000000000000000081526004016116c990611fbf565b60405180910390fd5b6116db816111b0565b1561171b576040517f08c379a000000000000000000000000000000000000000000000000000000000815260040161171290611f3f565b60405180910390fd5b6117296000838360016111f1565b611732816111b0565b15611772576040517f08c379a000000000000000000000000000000000000000000000000000000000815260040161176990611f3f565b60405180910390fd5b6001600360008473ffffffffffffffffffffffffffffffffffffffff1673ffffffffffffffffffffffffffffffffffffffff16815260200190815260200160002060008282540192505081905550816002600083815260200190815260200160002060006101000a81548173ffffffffffffffffffffffffffffffffffffffff021916908373ffffffffffffffffffffffffffffffffffffffff160217905550808273ffffffffffffffffffffffffffffffffffffffff16600073ffffffffffffffffffffffffffffffffffffffff167fddf252ad1be2c89b69c2b068fc378daa952ba7f163c4a11628f55a4df523b3ef60405160405180910390a461187c600083836001611317565b5050565b6000808273ffffffffffffffffffffffffffffffffffffffff163b119050919050565b60006118b66118b18461207f565b61205a565b9050828152602081018484840111156118d2576118d1612357565b5b6118dd8482856121f1565b509392505050565b6000813590506118f481612644565b92915050565b6000813590506119098161265b565b92915050565b60008135905061191e81612672565b92915050565b60008151905061193381612672565b92915050565b600082601f83011261194e5761194d612352565b5b813561195e8482602086016118a3565b91505092915050565b60008135905061197681612689565b92915050565b60006020828403121561199257611991612361565b5b60006119a0848285016118e5565b91505092915050565b600080604083850312156119c0576119bf612361565b5b60006119ce858286016118e5565b92505060206119df858286016118e5565b9150509250929050565b600080600060608486031215611a0257611a01612361565b5b6000611a10868287016118e5565b9350506020611a21868287016118e5565b9250506040611a3286828701611967565b9150509250925092565b60008060008060808587031215611a5657611a55612361565b5b6000611a64878288016118e5565b9450506020611a75878288016118e5565b9350506040611a8687828801611967565b925050606085013567ffffffffffffffff811115611aa757611aa661235c565b5b611ab387828801611939565b91505092959194509250565b60008060408385031215611ad657611ad5612361565b5b6000611ae4858286016118e5565b9250506020611af5858286016118fa565b9150509250929050565b60008060408385031215611b1657611b15612361565b5b6000611b24858286016118e5565b9250506020611b3585828601611967565b9150509250929050565b600060208284031215611b5557611b54612361565b5b6000611b638482850161190f565b91505092915050565b600060208284031215611b8257611b81612361565b5b6000611b9084828501611924565b91505092915050565b600060208284031215611baf57611bae612361565b5b6000611bbd84828501611967565b91505092915050565b611bcf8161217d565b82525050565b611bde8161218f565b82525050565b6000611bef826120b0565b611bf981856120c6565b9350611c09818560208601612200565b611c1281612366565b840191505092915050565b6000611c28826120bb565b611c3281856120d7565b9350611c42818560208601612200565b611c4b81612366565b840191505092915050565b6000611c61826120bb565b611c6b81856120e8565b9350611c7b818560208601612200565b80840191505092915050565b6000611c94602d836120d7565b9150611c9f82612377565b604082019050919050565b6000611cb76032836120d7565b9150611cc2826123c6565b604082019050919050565b6000611cda6025836120d7565b9150611ce582612415565b604082019050919050565b6000611cfd601c836120d7565b9150611d0882612464565b602082019050919050565b6000611d206024836120d7565b9150611d2b8261248d565b604082019050919050565b6000611d436019836120d7565b9150611d4e826124dc565b602082019050919050565b6000611d666029836120d7565b9150611d7182612505565b604082019050919050565b6000611d896020836120d7565b9150611d9482612554565b602082019050919050565b6000611dac6018836120d7565b9150611db78261257d565b602082019050919050565b6000611dcf6021836120d7565b9150611dda826125a6565b604082019050919050565b6000611df2603d836120d7565b9150611dfd826125f5565b604082019050919050565b611e11816121e7565b82525050565b6000611e238285611c56565b9150611e2f8284611c56565b91508190509392505050565b6000602082019050611e506000830184611bc6565b92915050565b6000608082019050611e6b6000830187611bc6565b611e786020830186611bc6565b611e856040830185611e08565b8181036060830152611e978184611be4565b905095945050505050565b6000602082019050611eb76000830184611bd5565b92915050565b60006020820190508181036000830152611ed78184611c1d565b905092915050565b60006020820190508181036000830152611ef881611c87565b9050919050565b60006020820190508181036000830152611f1881611caa565b9050919050565b60006020820190508181036000830152611f3881611ccd565b9050919050565b60006020820190508181036000830152611f5881611cf0565b9050919050565b60006020820190508181036000830152611f7881611d13565b9050919050565b60006020820190508181036000830152611f9881611d36565b9050919050565b60006020820190508181036000830152611fb881611d59565b9050919050565b60006020820190508181036000830152611fd881611d7c565b9050919050565b60006020820190508181036000830152611ff881611d9f565b9050919050565b6000602082019050818103600083015261201881611dc2565b9050919050565b6000602082019050818103600083015261203881611de5565b9050919050565b60006020820190506120546000830184611e08565b92915050565b6000612064612075565b90506120708282612265565b919050565b6000604051905090565b600067ffffffffffffffff82111561209a57612099612323565b5b6120a382612366565b9050602081019050919050565b600081519050919050565b600081519050919050565b600082825260208201905092915050565b600082825260208201905092915050565b600081905092915050565b60006120fe826121e7565b9150612109836121e7565b9250827fffffffffffffffffffffffffffffffffffffffffffffffffffffffffffffffff0382111561213e5761213d612296565b5b828201905092915050565b6000612154826121e7565b915061215f836121e7565b92508282101561217257612171612296565b5b828203905092915050565b6000612188826121c7565b9050919050565b60008115159050919050565b60007fffffffff0000000000000000000000000000000000000000000000000000000082169050919050565b600073ffffffffffffffffffffffffffffffffffffffff82169050919050565b6000819050919050565b82818337600083830152505050565b60005b8381101561221e578082015181840152602081019050612203565b8381111561222d576000848401525b50505050565b6000600282049050600182168061224b57607f821691505b6020821081141561225f5761225e6122f4565b5b50919050565b61226e82612366565b810181811067ffffffffffffffff8211171561228d5761228c612323565b5b80604052505050565b7f4e487b7100000000000000000000000000000000000000000000000000000000600052601160045260246000fd5b7f4e487b7100000000000000000000000000000000000000000000000000000000600052601260045260246000fd5b7f4e487b7100000000000000000000000000000000000000000000000000000000600052602260045260246000fd5b7f4e487b7100000000000000000000000000000000000000000000000000000000600052604160045260246000fd5b600080fd5b600080fd5b600080fd5b600080fd5b6000601f19601f8301169050919050565b7f4552433732313a2063616c6c6572206973206e6f7420746f6b656e206f776e6560008201527f72206f7220617070726f76656400000000000000000000000000000000000000602082015250565b7f4552433732313a207472616e7366657220746f206e6f6e20455243373231526560008201527f63656976657220696d706c656d656e7465720000000000000000000000000000602082015250565b7f4552433732313a207472616e736665722066726f6d20696e636f72726563742060008201527f6f776e6572000000000000000000000000000000000000000000000000000000602082015250565b7f4552433732313a20746f6b656e20616c7265616479206d696e74656400000000600082015250565b7f4552433732313a207472616e7366657220746f20746865207a65726f2061646460008201527f7265737300000000000000000000000000000000000000000000000000000000602082015250565b7f4552433732313a20617070726f766520746f2063616c6c657200000000000000600082015250565b7f4552433732313a2061646472657373207a65726f206973206e6f74206120766160008201527f6c6964206f776e65720000000000000000000000000000000000000000000000602082015250565b7f4552433732313a206d696e7420746f20746865207a65726f2061646472657373600082015250565b7f4552433732313a20696e76616c696420746f6b656e2049440000000000000000600082015250565b7f4552433732313a20617070726f76616c20746f2063757272656e74206f776e6560008201527f7200000000000000000000000000000000000000000000000000000000000000602082015250565b7f4552433732313a20617070726f76652063616c6c6572206973206e6f7420746f60008201527f6b656e206f776e6572206f7220617070726f76656420666f7220616c6c000000602082015250565b61264d8161217d565b811461265857600080fd5b50565b6126648161218f565b811461266f57600080fd5b50565b61267b8161219b565b811461268657600080fd5b50565b612692816121e7565b811461269d57600080fd5b5056fea26469706673582212208e0be0f9c85747394ef506e447819cdb256565a00afcd9129f6855114a5212e864736f6c63430008070033",
  "linkReferences": {},
  "deployedLinkReferences": {}
}